:020000040800F2
:1000000078040020C9000008890B0008250B0008AF
:1000100000000000000000000000000000000000E0
:10002000000000000000000000000000D30B0008EA
:100030000000000000000000D10B0008D50B0008F4
:10004000DB00000800000000DB000008DB00000807
:10005000DB000008DB000008DB000008DB00000814
:1000600000000000DB000008DB000008DB000008E7
:10007000DB000008DB000008DB00000800000000D7
:10008000DB000008DB00000800000000DB000008C7
:10009000DB000008DB000008DB000008DB000008D4
:1000A000DB000008DB000008DB000008DB000008C4
:1000B000DB0000080348854600F03CF80048004794
:1000C000190F0008780400200448804704480047BE
:1000D000FEE7FEE7FEE7FEE7FEE7FEE7310C00087D
:1000E000B500000830B50B4601460020202201244F
:1000F00009E00D46D5409D4205D31D469540491B5C
:100100002546954040191546521E002DF1DC30BDA4
:10011000D2B201E00270401C491EFBD2704700229F
:10012000F6E710B513460A4604461946FFF7F0FFF6
:10013000204610BD064C0125064E05E0E36807CCBD
:100140002B430C3C98471034B442F7D3FFF7B6FF6B
:100150006C0F00088C0F0008704731B500F0B0F844
:10016000009C0546601C00D0641C00F0A9F8401BF0
:10017000A042FAD338BD0000F8B500238DE0012479
:100180009C40A44622407DD04C68022C01D0122C09
:100190000CD1DC08A40027183C6A5D07ED0E0F2681
:1001A000AE40B4430E69AE4026433E6205685E0031
:1001B0000324B4400F79A543BF07BF0FB7402F43B7
:1001C00007604D68012D05D0022D03D0112D01D0FF
:1001D000122D0ED18568CF68A543B7402F438760A5
:1001E00047686546AF430D79ED06ED0F9D403D43F1
:1001F0004560C568A5438C68B4402C43C4604C6816
:10020000E40049D5284CA56901263543A561A469B8
:100210009D0834400094254CAD002F19BC689D0703
:100220002E0F0F25B540AC430925ED06A84201D19C
:1002300000250FE01E4DA84201D101250AE01D4D09
:10024000A84201D1022505E01B4DA84201D103259A
:1002500000E00525B5402543BD60184C25684E6873
:100260009543F60300D51543256065684E689543B0
:10027000B60300D515436560A5684E689543F60240
:1002800002D500E008E01543A560E5684E68954397
:10029000B60200D51543E5605B1C0A681446DC40D5
:1002A00000D06CE7F8BD00000010024000000140E3
:1002B0000004004800080048000C00480004014009
:1002C00001480068704700000000002002480168F3
:1002D000491C0160704700000000002010B506486E
:1002E0000168102211430160002000F007F800F0BF
:1002F00017F8002010BD00000020024010B5044691
:1003000000F030F97D21C900FFF7ECFE00F026FB7C
:1003100000222146501E00F017F8002010BD0000FA
:1003200008B5084881690122114381618169114042
:100330000091C26901040A43C261C069084000908B
:1003400008BD00000010024010B500F01FFC10BDF9
:10035000F8B505460068354CC00352D5E069002663
:10036000C00007D4E16920040143E161E169014073
:10037000012600912E480168C90510D40168821534
:1003800011430160FFF79CFF074604E0FFF798FF69
:10039000C01B642824D826480068C005F6D5206A0A
:1003A00003273F02384020D06968394081421CD081
:1003B000206A226AB843012109040A432262226AA0
:1003C0008A4322622062C0070FD0FFF779FF0090B6
:1003D00008E0FFF775FF0099411A1648814201D9DC
:1003E0000320F8BD206A8007F3D5206A6968B84306
:1003F00008432062002E04D0E169012000078143F8
:10040000E1612878C00705D0206BA96880088000CA
:10041000084320632878800605D5206B1021884387
:10042000E968084320630020F8BD00000010024086
:100430000070004088130000F8B5054644480E4699
:100440000068C007C00FB0420AD24148016849089D
:100450004900314301600068C007C00FB0425CD161
:1004600028783C4C800705D56068F0218843A9684E
:10047000084360602878C0073FD06868012813D01F
:100480002168022813D08907002946DA61688908A3
:10049000890001436160FFF713FF6968074601297E
:1004A0000DD0022917D024E021688903ECE78901E7
:1004B000EAE7FFF705FFC11B2748814217D86068AC
:1004C0000007800F0128F4D117E0FFF7F9FEC11BE8
:1004D000214881420BD860680007800F0228F4D1C0
:1004E0000BE0FFF7EDFEC11B1B48814201D9032041
:1004F000F8BD60680007800FF3D115480168C9078F
:10050000C90FB1420BD90168490849003143016064
:100510000068C007C00FB04201D00120F8BD2878A4
:10052000400706D56068072109028843E968084347
:10053000606000F02DF86168084A0906090F515CF7
:10054000C840074908600020FFF7D8FE0020F8BD2A
:10055000002002400010024088130000540F0008E1
:1005600004000020014800687047000004000020DB
:100570000448054900684968044A4905490F515C27
:10058000C84070470400002000100240640F0008BB
:1005900010B512A30FCB88B06C460FC413A30FCBBA
:1005A0000FC416494A680C20134603401448042B14
:1005B0000FD0082B0DD193021B0F6C46E45CC96A67
:1005C00004AB0907090F595CD20304D5FFF78AFD74
:1005D000604308B010BD0B486043FAE7020304050E
:1005E000060708090A0B0C0D0E0F10100102030478
:1005F00005060708090A0B0C0D0E0F10001002402B
:1006000000127A0000093D00FEB504460078D04D86
:10061000C00747D068680007800F012807D06868C6
:100620000007800F022809D16868C00306D5286832
:10063000800337D5606800287ED033E001206268EF
:100640000004012A11D08100002A01D0052A10D00F
:100650002A6882432A6028688843286060680028E6
:1006600014D0FFF72DFE06460CE0296801432960EF
:10067000F4E72A680A432A60F7E7FFF721FE801BA8
:1006800064286FD828688003F7D50BE0FFF718FEC1
:10069000064604E0FFF714FE801B6428F1D82868A2
:1006A0008003F7D420780126800700283BDA6868A9
:1006B0000007800F07D068680007800F022809D163
:1006C0006868C00306D42868800715D5E06801284B
:1006D00032D111E0E0680028286815D03043286046
:1006E000FFF7EEFD074604E0FFF7EAFDC01B022816
:1006F000C7D828688007F7D52868F821884321697A
:10070000C900084328600EE0400840002860FFF759
:10071000D7FD074604E0FFF7D3FDC01B0228B0D881
:1007200028688007F7D42078000724D5E0690028DE
:10073000686A10D0304300E008E16862FFF7C0FD4E
:10074000074604E0FFF7BCFDC01B022899D8686A81
:100750008007F7D50FE0400840006862FFF7B0FD62
:10076000074605E09DE0FFF7ABFDC01B022888D8D7
:10077000686A8007F7D4207804274007002860DAE9
:1007800000200190E869C00008D4E969B806014377
:10079000E961E96901400120009101906D4801681B
:1007A000C90511D40168821511430160FFF788FD66
:1007B000009005E0FFF784FD0099401A642870D886
:1007C00064480068C005F5D5A06801280AD0002853
:1007D00001D0052810D0286A400840002862286A05
:1007E000B84301E0286A30432862A068002812D08C
:1007F000FFF766FD00900AE0286A38432862F1E7B7
:10080000FFF75EFD0099411A5348814249D8286A92
:100810008007F5D50DE0FFF753FD009006E0FFF7E8
:100820004FFD0099411A4C4881423AD8286A800706
:10083000F5D40198002804D0E9690120000781431C
:10084000E9612078C00635D5606901280CD0401DCB
:10085000686B23D038436863686B40084000686366
:10086000FFF72EFD064622E0686B38436863686B2D
:1008700030436863FFF724FD064604E0FFF720FDE0
:10088000801B02285BD8686B8007F7D5686BF8215E
:100890008843A169C900084368630BE0B8436863F3
:1008A000F4E74CE0FFF70CFD801B022847D8686B8B
:1008B0008007F7D4206A002846D069680907890FA5
:1008C000022943D0012636060228286805D0B04305
:1008D0002860FFF7F5FC044633E0B0432860FFF7DB
:1008E000EFFC074604E0FFF7EBFCC01B022826D80C
:1008F00028688001F7D4E86AE16A0009000108432A
:10090000E862616AA06A084369683D221204914363
:1009100008436860286830432860FFF7D1FC04462C
:1009200004E0FFF7CDFC001B022808D828688001EE
:10093000F7D509E0FFF7C4FC001B022801D903200A
:10094000FEBD28688001F5D40020FEBD0120FEBD5B
:10095000001002400070004088130000094910B5E3
:10096000401E884201D9012010BD074C606103215F
:10097000081F00F00BF90020A06107202061002073
:1009800010BD0000FFFFFF0000E000E070B50400B4
:1009900005D025466035687A002802D006E001209F
:1009A00070BD00202872204600F026F824206872CE
:1009B00020680168490849000160204600F0D4F928
:1009C0000128EDD0606A002802D0204600F05EF9D0
:1009D000206841680122D202914341602068816809
:1009E000082291438160206801680122114301605F
:1009F000204600F0B0F970BD10B586B00446142151
:100A00006846FFF78CFB1349206888421FD11248C3
:100A10008269012189030A43826182690A40059241
:100A20004269C9000A4342614069084005900320B9
:100A300040020090022001900020029003200390C9
:100A40000120049009206946C006FFF795FB06B017
:100A500010BD00000038014000100240FFB50646FE
:100A600004466036707A83B00D46202858D1002D98
:100A70000CD00598002809D00120A168000381420C
:100A800007D12069002804D1E80702D0012007B06F
:100A9000F0BD307A012843D0012030720020E0669A
:100AA00021207072FFF70CFC019027464037059813
:100AB00038820598788218E0788A401E78820698F5
:100AC0000090002280212046019B00F0E5F90028DB
:100AD00018D10120A1680003814202D120690028B9
:100AE00012D02168287808856D1C788A0028E3D107
:100AF00006980090002240212046019B00F0CCF98E
:100B0000002808D00320C2E728882168C005C00D4E
:100B10000885AD1CE9E72020707200203072B6E72E
:100B20000220B4E7FEE7000008B508484269012149
:100B300089050A43426142690A40009242694911AB
:100B40000A43426140690840009008BD001002401D
:100B500010B50C480A4901604B21C90141600021D0
:100B60008160C16001618161C1610C2201624261E9
:100B70004162FFF70BFF002801D0FFF7EDFA10BD2F
:100B80000038014008000020704700008307FF2262
:100B9000DB0E9A408907090E994000280BDA0007FE
:100BA000000F0838830808489B001818C36993434E
:100BB0000B43C3617047830804489B001B181868E7
:100BC000904308431860704700ED00E000E400E047
:100BD0007047704710B5FFF779FB10BD30B595B081
:100BE00030216846FFF79BFA00240F9402200D94F1
:100BF0000E94009012940125139410200C940395E8
:100C000004901094119408946846FFF7FDFC0720A7
:100C10000C900D940E9400210F940CA8FFF70CFC7F
:100C200010A810951294FFF793FB15B030BD00008B
:100C3000134801680122114301604168114A1140C3
:100C400041600168104A114001600168012292046C
:100C50009143016041683F22120491434160C16A9F
:100C600009090901C162016BFF221432914301633A
:100C7000416B4908490041630021816070470000D1
:100C8000001002400CB8FF08FFFFF6FE10B5818C83
:100C9000C90707D001684A6801235B049A43836A45
:100CA0001A434A60818C890707D501684A68012385
:100CB0001B049A43C36A1A434A60818C490707D5CB
:100CC00001684A6801239B049A43036B1A434A60F4
:100CD000818C090707D501684A680123DB039A4321
:100CE000436B1A434A60818CC90607D50268916834
:100CF00001231B039943836B19439160818C8906FF
:100D000007D501688A6801235B039A43C36B1A43C2
:100D10008A60818C490612D503685A680121090549
:100D2000046C8A4322435A60026C8A4207D10268EB
:100D3000516803235B059943436C19435160818CCF
:100D4000090607D501684A680123DB04806C9A43D1
:100D500002434A6010BD0021C16620226030427209
:100D60008272017208467047F8B504462369A2688A
:100D7000E5691A43636910202B43002125681A4353
:100D80002B680E463E4F3B4013432B6023685A6846
:100D900003252D03AA43E5682A435A60236AA26902
:100DA00025681A43AB680B273F02BB431343AB6074
:100DB000344A2568954210D1334A126B9207920F3C
:100DC0000ED0012A05D0022A05D0032A09D102201B
:100DD00007E0042005E0082003E02C4A954200D1FA
:100DE00000200122E369D203934224D100280CD0D1
:100DF00002280DD0042813D0082817D001260A098C
:100E000012010807400F10432FE0FFF7B1FB09E084
:100E100061681F4A48088018FFF764F981B2EEE75D
:100E2000FFF7B6FB616840004A08F4E761680122F9
:100E300048081204EFE7002808D0022809D0042847
:100E40000BD0082814D001263046F8BDFFF790FBE0
:100E500005E061680F4A48080CE0FFF799FB6168FC
:100E60004A088018FFF73EF980B22168C860EBE7B6
:100E7000616848088018FFF735F980B2E860E3E759
:100E8000F369FFFF003801400010024000440040B9
:100E90000024F40000127A00FFB581B017460E4618
:100EA00004460A9D1DE0681C1BD0002D05D0FFF7ED
:100EB00007FA0499401AA84213D920680168FF2252
:100EC000A13291430160206881684908490081602E
:100ED000202060346072A07200202072032005B0D0
:100EE000F0BD2068C1693046884304D00020B84274
:100EF000D9D00020F3E70120F9E702E008C8121F6B
:100F000008C1002AFAD170477047002001E001C1F2
:100F1000121F002AFBD17047FFF7E0F9FFF75EFED2
:100F2000FFF702FEFFF714FE054C651C234609225D
:100F300004A10748FFF792FD2846FFF70EF9F5E7F1
:100F4000E70300006C6564206F6E206F6E00000088
:100F5000080000200000000000000000010203045F
:100F60000607080900000000010203048C0F0008B6
:100F70000000002008000000FA0E0008940F00088E
:100F800008000020700400000A0F000800000000A4
:040F900000127A00D1
:04000005080000B53A
:00000001FF
