:020000040800F2
:1000000028080020C900000871100008E50F00084A
:1000100000000000000000000000000000000000E0
:10002000000000000000000000000000BB100008FD
:100030000000000000000000B9100008BD1000081A
:10004000DB00000800000000DB000008DB00000807
:10005000DB000008DB000008DB000008DB00000814
:1000600000000000DB00000859010008DB00000868
:10007000DB000008DB000008DB00000800000000D7
:10008000DB000008DB00000800000000DB000008C7
:10009000DB000008DB000008DB000008DB000008D4
:1000A000DB000008DB000008DB000008B5150008D5
:1000B000DB0000080348854600F03CF80048004794
:1000C000E515000828080020044880470448004738
:1000D000FEE7FEE7FEE7FEE7FEE7FEE71911000890
:1000E000B500000830B50B4601460020202201244F
:1000F00009E00D46D5409D4205D31D469540491B5C
:100100002546954040191546521E002DF1DC30BDA4
:10011000D2B201E00270401C491EFBD2704700229F
:10012000F6E710B513460A4604461946FFF7F0FFF6
:10013000204610BD064C0125064E05E0E36807CCBD
:100140002B430C3C98471034B442F7D3FFF7B6FF6B
:10015000681600088816000810B5034800F053F828
:10016000024800F050F810BDA0030020E403002076
:1001700010B504460068054940181421FFF7B2FF86
:10018000800020640248E06310BD0000F8FFFDBF5E
:100190000000024030B5056C0124AC40C56B6C60BA
:1001A000046863604368102B036803D0996000689B
:1001B000C26030BD9A600068C16030BD704770B5E4
:1001C0000024014620314A78022A03D004218163A9
:1001D000012416E0026813680E25AB431360026821
:1001E00013685B085B0013600122056C1346AB408B
:1001F000C56B6B604A7000220A70416B002900D009
:100200008847204670BDF0B4C16B0D6801680C686A
:100210000422066C1346B3402B420DD063070BD566
:100220000B689B0602D40B6893430B60016C8A40F9
:10023000C16B4A60C16A19E00227B74002462F40ED
:1002400001232032002F15D0A70713D50C68A40670
:1002500004D40C680A25AC430C605370036C022173
:100260009940C36B596000211170816A002916D032
:10027000F0BC08470827B7402F4210D024070ED5FE
:100280000C680E25AC430C60046C1946A140C46B8D
:1002900061608363537000211170016BE6E7F0BC6D
:1002A0007047000070B5040024D0022021462031A0
:1002B0000D464870226811680F48A36801406068C5
:1002C00026691843E3683343184363691843A369F5
:1002D0001843E3691843084310602046FFF748FFBE
:1002E0000020A062E06220636063A0630121697066
:1002F000287070BD012070BD0FC0FFFFF8B5044627
:100300008C46203001780025012909D0012606708D
:1003100041780027012905D0077002252846F8BD3D
:100320000220F8BD02214170A763206801684908D6
:100330004900016061462046FFF72CFFE06A002873
:100340002068016802D00E22114306E00A22114300
:1003500001602068016804229143016020680168FF
:1003600031430160DAE731B500F0B0F8009C054692
:10037000601C00D0641C00F0A9F8401BA042FAD316
:1003800038BD0000F8B500238DE001249C40A44650
:1003900022407DD04C68022C01D0122C0CD1DC08FC
:1003A000A40027183C6A5D07ED0E0F26AE40B4434B
:1003B0000E69AE4026433E6205685E000324B440E9
:1003C0000F79A543BF07BF0FB7402F4307604D68A4
:1003D000012D05D0022D03D0112D01D0122D0ED1EB
:1003E0008568CF68A543B7402F4387604768654657
:1003F000AF430D79ED06ED0F9D403D434560C56867
:10040000A5438C68B4402C43C4604C68E40049D5D3
:10041000284CA56901263543A561A4699D0834408F
:100420000094254CAD002F19BC689D072E0F0F2599
:10043000B540AC430925ED06A84201D100250FE0E7
:100440001E4DA84201D101250AE01D4DA84201D14F
:10045000022505E01B4DA84201D1032500E005253A
:10046000B5402543BD60184C25684E689543F6039A
:1004700000D51543256065684E689543B60300D5E1
:1004800015436560A5684E689543F60202D500E005
:1004900008E01543A560E5684E689543B60200D5AF
:1004A0001543E5605B1C0A681446DC4000D06CE72D
:1004B000F8BD0000001002400000014000040048A8
:1004C00000080048000C0048000401400148006892
:1004D000704700000800002002480168491C0160C4
:1004E000704700000800002010B50648016810227F
:1004F00011430160002000F007F800F017F8002019
:1005000010BD00000020024010B5044600F03AF98A
:100510007D21C900FFF7E6FD00F030FB00222146F7
:10052000501E00F021F8002010BD000008B508485A
:100530008169012211438161816911400091C26981
:1005400001040A43C261C0690840009008BD000070
:1005500000100240C106C90E012088400149086010
:100560007047000000E100E010B500F083FD10BD11
:10057000F8B505460068354CC00352D5E069002641
:10058000C00007D4E16920040143E161E169014051
:10059000012600912E480168C90510D40168821512
:1005A00011430160FFF792FF074604E0FFF78EFF5B
:1005B000C01B642824D826480068C005F6D5206AE8
:1005C00003273F02384020D06968394081421CD05F
:1005D000206A226AB843012109040A432262226A7E
:1005E0008A4322622062C0070FD0FFF76FFF00909E
:1005F00008E0FFF76BFF0099411A1648814201D9C4
:100600000320F8BD206A8007F3D5206A6968B843E3
:1006100008432062002E04D0E169012000078143D5
:10062000E1612878C00705D0206BA96880088000A8
:10063000084320632878800605D5206B1021884365
:10064000E968084320630020F8BD00000010024064
:100650000070004088130000F8B5054644480E4677
:100660000068C007C00FB0420AD24148016849087B
:100670004900314301600068C007C00FB0425CD13F
:1006800028783C4C800705D56068F0218843A9682C
:10069000084360602878C0073FD06868012813D0FD
:1006A0002168022813D08907002946DA6168890881
:1006B000890001436160FFF709FF69680746012966
:1006C0000DD0022917D024E021688903ECE78901C5
:1006D000EAE7FFF7FBFEC11B2748814217D8606895
:1006E0000007800F0128F4D117E0FFF7EFFEC11BD0
:1006F000214881420BD860680007800F0228F4D19E
:100700000BE0FFF7E3FEC11B1B48814201D9032028
:10071000F8BD60680007800FF3D115480168C9076C
:10072000C90FB1420BD90168490849003143016042
:100730000068C007C00FB04201D00120F8BD287882
:10074000400706D56068072109028843E968084325
:10075000606000F02DF86168084A0906090F515CD5
:10076000C840074908600020FFF7CEFE0020F8BD12
:1007700000200240001002408813000050160008BC
:100780000C00002001480068704700000C000020A9
:100790000448054900684968044A4905490F515C05
:1007A000C84070470C00002000100240601600088E
:1007B00010B512A30FCB88B06C460FC413A30FCB98
:1007C0000FC416494A680C20134603401448042BF2
:1007D0000FD0082B0DD193021B0F6C46E45CC96A45
:1007E00004AB0907090F595CD20304D5FFF77AFC63
:1007F000604308B010BD0B486043FAE702030405EC
:10080000060708090A0B0C0D0E0F10100102030455
:1008100005060708090A0B0C0D0E0F100010024008
:1008200000127A0000093D00FEB504460078D04D64
:10083000C00747D068680007800F012807D06868A4
:100840000007800F022809D16868C00306D5286810
:10085000800337D5606800287ED033E001206268CD
:100860000004012A11D08100002A01D0052A10D0ED
:100870002A6882432A6028688843286060680028C4
:1008800014D0FFF723FE06460CE0296801432960D7
:10089000F4E72A680A432A60F7E7FFF717FE801B90
:1008A00064286FD828688003F7D50BE0FFF70EFEA9
:1008B000064604E0FFF70AFE801B6428F1D828688A
:1008C0008003F7D420780126800700283BDA686887
:1008D0000007800F07D068680007800F022809D141
:1008E0006868C00306D42868800715D5E068012829
:1008F00032D111E0E0680028286815D03043286024
:10090000FFF7E4FD074604E0FFF7E0FDC01B022807
:10091000C7D828688007F7D52868F8218843216957
:10092000C900084328600EE0400840002860FFF737
:10093000CDFD074604E0FFF7C9FDC01B0228B0D873
:1009400028688007F7D42078000724D5E0690028BC
:10095000686A10D0304300E008E16862FFF7B6FD36
:10096000074604E0FFF7B2FDC01B022899D8686A69
:100970008007F7D50FE0400840006862FFF7A6FD4A
:10098000074605E09DE0FFF7A1FDC01B022888D8BF
:10099000686A8007F7D4207804274007002860DAC7
:1009A00000200190E869C00008D4E969B806014355
:1009B000E961E96901400120009101906D480168F9
:1009C000C90511D40168821511430160FFF77EFD4E
:1009D000009005E0FFF77AFD0099401A642870D86E
:1009E00064480068C005F5D5A06801280AD0002831
:1009F00001D0052810D0286A400840002862286AE3
:100A0000B84301E0286A30432862A068002812D069
:100A1000FFF75CFD00900AE0286A38432862F1E79E
:100A2000FFF754FD0099411A5348814249D8286A7A
:100A30008007F5D50DE0FFF749FD009006E0FFF7D0
:100A400045FD0099411A4C4881423AD8286A8007EE
:100A5000F5D40198002804D0E969012000078143FA
:100A6000E9612078C00635D5606901280CD0401DA9
:100A7000686B23D038436863686B40084000686344
:100A8000FFF724FD064622E0686B38436863686B15
:100A900030436863FFF71AFD064604E0FFF716FDD2
:100AA000801B02285BD8686B8007F7D5686BF8213C
:100AB0008843A169C900084368630BE0B8436863D1
:100AC000F4E74CE0FFF702FD801B022847D8686B73
:100AD0008007F7D4206A002846D069680907890F83
:100AE000022943D0012636060228286805D0B043E3
:100AF0002860FFF7EBFC044633E0B0432860FFF7C3
:100B0000E5FC074604E0FFF7E1FCC01B022826D8FD
:100B100028688001F7D4E86AE16A00090001084307
:100B2000E862616AA06A084369683D221204914341
:100B300008436860286830432860FFF7C7FC044614
:100B400004E0FFF7C3FC001B022808D828688001D6
:100B5000F7D509E0FFF7BAFC001B022801D90320F2
:100B6000FEBD28688001F5D40020FEBD0120FEBD39
:100B7000001002400070004088130000094910B5C1
:100B8000401E884201D9012010BD074C606103213D
:100B9000081F00F06FFA0020A061072020610020EC
:100BA00010BD0000FFFFFF0000E000E07047000004
:100BB000F8B503680446D96918680D072D0F07D1E9
:100BC0008A0605D5820603D5204600F0BAFBF8BD9B
:100BD0009A68002D64D0D507ED0FFF262136064018
:100BE0002E435DD0CE0706D0C60504D501261E6271
:100BF000E36E3343E3668F0702230426002F06DAF1
:100C0000D70704D027683B62E76E3743E7664F0794
:100C100006D5D20704D022681662E26E1A43E26655
:100C20000A0709D5202202402A4305D0236808225A
:100C30001A62E36E1343E366E26E002AC7D08906A8
:100C400004D5800602D5204600F07BFBE06E00074D
:100C500003D42068806840061CD5204600F04CFB79
:100C600020688168490611D58168402291438160DE
:100C7000606E00280AD012494163606EFFF79FFA48
:100C80000028A4D0606E416B8847F8BD2046FFF76E
:100C90008DFFF8BD2046FFF789FF0020E066F8BD14
:100CA0000A0605D5020603D5204600F01FFCF8BD54
:100CB0004906FCD54006FAD5204600F02CFBF8BDCD
:100CC0005112000870B5040005D025466035687AD9
:100CD000002802D006E0012070BD002028722046C6
:100CE00000F026F82420687220680168490849004D
:100CF0000160204600F062FB0128EDD0606A002808
:100D000002D0204600F036FA206841680122D20263
:100D10009143416020688168082291438160206886
:100D20000168012211430160204600F088FA70BD7D
:100D3000F0B587B0064614216846FFF7F0F92C4954
:100D40003068884252D12B488269012189030A43C5
:100D5000826182690A4005924269C9000A43426180
:100D600040690024084005900320400200900220C2
:100D70000190032003900120049009200294694609
:100D8000C006FFF7FFFA1D4D1B4828601020802782
:100D9000291D91C12C616C61AC612846EC61FFF7A3
:100DA00081FA002801D0FFF709FA35666E62124811
:100DB000124D1430443511C52C60AC60EC606F608E
:100DC00020206C61286128460838083DFFF76AFA40
:100DD000002801D0FFF7F2F97566002211461B20AA
:100DE0006E62FFF7C1FB1B20FFF7B4FB07B0F0BD3D
:100DF00000380140001002401C000240A003002007
:100E0000F8B5054604466035A87A202841D1002966
:100E10000BD0002A09D00123A0681B03984206D1F9
:100E20002069002803D1C80701D00120F8BD287A25
:100E300001282ED001202872582061650253002617
:100E4000E6662220A872616E13488862616E1348BC
:100E5000C862616E12480863606E13464663676D30
:100E600021683A462431606EFFF748FA2E722068F6
:100E70000168FF220132114301602068816801226C
:100E80001143816020688168402211438160002005
:100E9000F8BD0220F8BD0000AF120008EF120008F4
:100EA00065120008F0B518480068816908221143EE
:100EB0008161164FFF223D783B4600201449913254
:100EC0005C68232D0CD0944205DB00237860C85465
:100ED0005B1C9342FBDB78680D54401C7860F0BDCE
:100EE00000230C4D02E0CE5CEE545B1C2646A34270
:100EF000F9DBBE7001237B7000237860C8545B1C53
:100F00009342FBDBF0BD0000300300200000002016
:100F100010000020A00100207047FFB506460446DF
:100F20006036707A83B00D46202858D1002D0CD041
:100F30000598002809D00120A1680003814207D14B
:100F40002069002804D1E80702D0012007B0F0BDD5
:100F5000307A012843D0012030720020E066212041
:100F60007072FFF7B3FA0190274640370598388230
:100F70000598788218E0788A401E7882069800905A
:100F8000002280212046019B00F0E3FA002818D1BE
:100F90000120A1680003814202D12069002812D0FB
:100FA0002168287808856D1C788A0028E3D1069886
:100FB0000090002240212046019B00F0CAFA002840
:100FC00008D00320C2E728882168C005C00D088525
:100FD000AD1CE9E72020707200203072B6E70220D5
:100FE000B4E77047FEE7000008B5084841690122F0
:100FF00011434161406910400022009011460A20CF
:10100000FFF7B2FA0A20FFF7A5FA08BD0010024068
:1010100008B508484269012189050A4342614269CD
:101020000A400092426949110A43426140690840FE
:10103000009008BD0010024010B50C480A4901603C
:101040004B21C901416000218160C1600161816162
:10105000C1610C22016242614162FFF733FE002848
:1010600001D0FFF7ABF810BD00380140300300207D
:10107000704700008307FF22DB0E9A408907090EA4
:10108000994000280BDA0007000F08388308084849
:101090009B001818C36993430B43C36170478308CF
:1010A00004489B001B181868904308431860704759
:1010B00000ED00E000E400E07047704710B5FFF776
:1010C0000BFA10BD30B595B030216846FFF727F810
:1010D00000240F9402200D940E9400901294012588
:1010E000139410200C940395049010941194089478
:1010F0006846FFF799FB07200C900D940E94002191
:101100000F940CA8FFF7A8FA10A810951294FFF7F7
:101110002FFA15B030BD00001348016801221143B9
:1011200001604168114A114041600168104A114054
:1011300001600168012292049143016041683F22ED
:10114000120491434160C16A09090901C162016B3E
:10115000FF22143291430163416B49084900416306
:101160000021816070470000001002400CB8FF08A9
:10117000FFFFF6FE10B5818CC90707D001684A68E9
:1011800001235B049A43836A1A434A60818C89076E
:1011900007D501684A6801231B049A43C36A1A43AE
:1011A0004A60818C490707D501684A6801239B047E
:1011B0009A43036B1A434A60818C090707D501687B
:1011C0004A680123DB039A43436B1A434A60818CCC
:1011D000C90607D50268916801231B039943836BF5
:1011E00019439160818C890607D501688A680123BB
:1011F0005B039A43C36B1A438A60818C490612D5FC
:1012000003685A6801210905046C8A4322435A6025
:10121000026C8A4207D10268516803235B05994337
:10122000436C19435160818C090607D501684A68EF
:101230000123DB04806C9A4302434A6010BD002105
:10124000C166202260304272827201720846704785
:1012500010B5406A0022014640314A834A82FFF7B6
:10126000A5FC10BD70B5446A25466035687A002635
:10127000212808D120688068000604D55220065332
:10128000204600F055F8A87A222808D12068806806
:10129000400604D55A200653204600F02DF8E06E93
:1012A00010210843E0662046FFF780FC70BD10B5B2
:1012B00001460968406A0968890615D400225A2146
:1012C0000A5201680A68FF2301339A430A600168E1
:1012D0008A68520852008A6001688A6840239A43EB
:1012E0008A6020226A210A54FFF7DCFD10BD10B588
:1012F000406AFFF711FE10BD01680A68FF23213321
:101300009A430A6001688A68520852008A60202164
:1013100060308172704710B501680A6840239A43B3
:101320000A60202269210A54FFF75BFE002010BDED
:1013300001680A68C0239A430A6020216030417224
:10134000704770B50246403203466033948B9D7AF5
:101350000168222D05D08869082210438861022087
:1013600070BD898C012685683603B54202D10569B6
:10137000002D0BD02140446D651C45652170518BBB
:10138000491E0904090C518307D015E0456D214021
:101390002980416D891C4165F1E701680A68FF24D5
:1013A0002134A2430A6001688A68520852008A60A8
:1013B00020219972FFF776FD002070BDF8B5044634
:1013C0002369A268E5691A43636910202B43002151
:1013D00025681A432B680E463E4F3B4013432B6053
:1013E00023685A6803252D03AA43E5682A435A60F7
:1013F000236AA26925681A43AB680B273F02BB43E7
:101400001343AB60344A2568954210D1334A126BBE
:101410009207920F0ED0012A05D0022A05D0032A86
:1014200009D1022007E0042005E0082003E02C4A4F
:10143000954200D100200122E369D203934224D1D6
:1014400000280CD002280DD0042813D0082817D06B
:1014500001260A0912010807400F10432FE0FFF789
:1014600097F909E061681F4A48088018FEF73AFEBC
:1014700081B2EEE7FFF79CF9616840004A08F4E7A3
:101480006168012248081204EFE7002808D002280A
:1014900009D004280BD0082814D001263046F8BD06
:1014A000FFF776F905E061680F4A48080CE0FFF79E
:1014B0007FF961684A088018FEF714FE80B221683F
:1014C000C860EBE7616848088018FEF70BFE80B241
:1014D000E860E3E7F369FFFF0038014000100240D5
:1014E000004400400024F40000127A006921095CE5
:1014F000212901D00220704702464032518A00293A
:1015000012D0012381681B03994202D1016900298D
:1015100015D0C16C4B1CC364006809780185508AE2
:10152000401E50820020704701680A6880239A4359
:101530000A6000680168402211430160F2E7C16C53
:1015400003680988C905C90D1985C16C891CC16466
:10155000E5E7FFB581B017460E4604460A9D1DE03B
:10156000681C1BD0002D05D0FEF7B0FF0499401A6F
:10157000A84213D920680168FF22A132914301607B
:1015800020688168490849008160202060346072C9
:10159000A07200202072032005B0F0BD2068C16950
:1015A0003046884304D00020B842D9D00020F3E769
:1015B0000120F9E710B50248FFF7FAFA10BD000064
:1015C0003003002002E008C8121F08C1002AFAD127
:1015D00070477047002001E001C1121F002AFBD1B3
:1015E00070470000FEF780FFFFF76CFDFFF710FD6E
:1015F000FFF7FAFCFFF720FD7D24E4002046FEF70C
:10160000B2FE0F48006881690822114381610122FE
:101610000C490B48FFF7F4FB0A4D002668780028B8
:10162000FCD06E702346AA7807490548FFF775FC81
:101630002346022205A10248FFF76FFCEEE70000F7
:101640003003002000000020A00100200D0A00004F
:101650000000000000000000010203040607080962
:1016600000000000010203048816000800000020AA
:1016700010000000C4150008981600081000002093
:1016800018080000D4150008000000000000000049
:081690000000000000127A00C6
:04000005080000B53A
:00000001FF
