:020000040800F2
:1000000040080020C90000085118000875170008B2
:1000100000000000000000000000000000000000E0
:100020000000000000000000000000009B18000815
:100030000000000000000000991800089D1800084A
:10004000DB00000800000000DB000008DB00000807
:10005000DB000008DB000008DB000008DB00000814
:1000600000000000DB000008D9070008DB000008E2
:10007000DB000008DB000008DB00000800000000D7
:10008000DB000008DB00000800000000DB000008C7
:10009000DB000008DB000008DB000008DB000008D4
:1000A000DB000008DB000008DB000008951D0008ED
:1000B000DB0000080348854600F0FAFA00480047D4
:1000C000F5260008400800200448804704480047FF
:1000D000FEE7FEE7FEE7FEE7FEE7FEE7F9180008A9
:1000E000B500000830B50B4601460020202201244F
:1000F00009E00D46D5409D4205D31D469540491B5C
:100100002546954040191546521E002DF1DC30BDA4
:1001100010B5202A04DB0846203AD040002110BD4B
:100120000B46D340D0402024A21A914008431946E0
:1001300010BDD2B201E00270401C491EFBD27047D4
:100140000022F6E710B513460A4604461946FFF7A3
:10015000F0FF204610BD70B502464A40D50F400062
:100160004A00ED0740085208002814D0002A12D097
:10017000C40DD30D41020120C0055202490A520AA2
:10018000E41A091812187D34914201D3641C00E06E
:100190004900002C01DA002070BD0023914201D3F8
:1001A000891A0343400849000028F7D100290AD0E2
:1001B000914202D10121C90705E0914201D20121FA
:1001C00001E00121C943E005C018401900F069F8B9
:1001D00070BDC217C10F504010B54018CA07962312
:1001E000002100F066F810BDC20F4100400201235B
:1001F000400ADB05D207090EC0187F2901DA00206A
:100200007047962903DC9623591AC84001E09639B5
:100210008840002AF4D040427047C20FD207400005
:1002200040080BD0C10D0723DB01C91840020905A6
:10023000400A1143C208400711437047002001469D
:100240007047F0B51FB40646002082B00546402432
:10025000019100901BE0019922460F463046FFF7BE
:1002600057FF049A059B801A994110D310461946EE
:10027000224600F02FFA361A8F41019722460120BC
:100280000021009F00F026FA38184D4100902046CA
:10029000641E0028DFDC019B00982946324607B027
:1002A000F0BD002904DA401C490001D1400840009B
:1002B000704770B40024050C05D11024000402D14D
:1002C000002921D01124050E01D100020834050FA8
:1002D00001D10001241D850F01D18000A41C00283C
:1002E00001DB4000641C002908D020252E1B0D4690
:1002F000F540A14000D001212943084301061B1B02
:10030000000ADB1D02D5002070BC7047DB05181801
:1003100080180029F8DA401C4900F5D170BC40086B
:1003200040007047F0B507460846584087B0C00FF8
:10033000049048000E46590040084908BC1A8841FC
:1003400005D2384631461E4617460B46024658002F
:10035000400810434CD0300D039040055900400D2B
:10036000490D0590401A0290402872DA18030121C5
:10037000000B09050843019004980092002805D05D
:100380000199524200208841009201900298402138
:100390000A1A0199009800F09DF905460C466B4633
:1003A00007CB00F0A7F9C0197141039A0E0D002385
:1003B000D71756401A467A40164344D0049A002A6A
:1003C0002DD0029A012A039A15DC1205C01A914118
:1003D00001263605001C7141D20F059ED2070093FD
:1003E000019202962A46234600F0A4F907B0F0BD18
:1003F00038463146FAE71605224A0F46B218C01AA7
:10040000B74101210905001C4F4100187F411146E9
:1004100018187941E20F10436D19644113E0E207A7
:100420006D0815436408C2071443039A0126120598
:10043000C01A91413605001C7141CE074008304377
:100440004908C01851412A46234600F066F9CDE715
:10045000FFE7049801224000C117121A00238B41C4
:1004600004983146C417381AA141EEE730B401248C
:10047000E407634030BC55E730B40124E407614031
:1004800030BC4FE70000E0FFF0B51FB488B00B9917
:100490000998002448400999C00F4900490809916A
:1004A000C0070B990090490049080B9109990898D9
:1004B000A64608431CD00B990A98084318D00998FF
:1004C00001244000420D4800410D09982405000315
:1004D000000B204309900B980003000B20430B9066
:1004E00050181C494018002201901446104605E09F
:1004F000002001460DB0F0BD032801DA034600E0FC
:1005000003239C46C11A0AAE0AE05F0008ADED5B0A
:100510004F00F75B7D430027AA187C41491C5B1EF6
:100520006145F2DD410004AB5A522104120C0A432A
:10053000240C401C0828DFDB0198029000997046CB
:1005400001910090059B049A0799069800F0F2F833
:10055000D0E700000DFCFFFFF0B50C465C4085B015
:10056000E40FE40703944C00002664085900944605
:10057000490802460296224321D062460A431ED011
:100580006200570D4A000E032303550D0124024655
:100590002C492405781B1B0B360B4018234326439C
:1005A000614600901C46501AB44103D30098401C89
:1005B000009002E0921800985B41002803DA0020C6
:1005C000014605B0F0BD0020012109050746864619
:1005D00011E064461D46141BB54106D36546521B07
:1005E000B341744607430C43A646CD07400849086B
:1005F000284392185B4105460D43EAD11046184343
:1006000013D06046194650407140084306D06046FA
:10061000101AB34106D20122002306E00022012372
:10062000DB0702E00122D243531000987446010513
:10063000381C6141029C039D0019694100F06DF86E
:10064000BFE70000FD0300004A0009030123090B76
:100650001B0519430A4B10B5520D9A4202DA0020CD
:10066000014610BD064B34339A4203DC9A1AFFF759
:100670004FFD10BD034BD21800F02CF810BD000048
:10068000FF030000CDFBFFFF10B5002904DB0124B0
:10069000E40740428C412146002B04DB1C46012329
:1006A000DB075242A341994200D1904210BD0000A5
:1006B000064C0125064E05E0E36807CC2B430C3CB5
:1006C00098471034B442F7D3FFF7F8FC84270008AA
:1006D000A427000810B5202A04DB0146203A9140E7
:1006E000002010BD914020239C1A0346E34019438B
:1006F000904010BD10B5202A06DBCB170846203AE3
:100700001041C1170B4306E00B461341D040202493
:10071000A21A91400843194610BD10B5002B08DA03
:100720000024401C614192185B411A4301D14008EA
:10073000400010BDF0B51FB482B005460C0003D0D8
:10074000084601F03FFB02E001F03CFB203002468E
:10075000009021462846FFF7BDFF049B059A0446FA
:100760000F4618431143084314D0184610431BD0BA
:10077000009840210A1A18460599FFF7C9FC05465A
:100780000E46009A05990498FFF7A4FF084305D088
:10079000012004E02046394607B0F0BD0020C11713
:1007A00005430E432C43374300990E986305401AC6
:1007B0007905E40A00220C43FD0A0A3002D5002024
:1007C0000146E9E70105101969410C9C0D9D0019CE
:1007D0006941FFF7A2FFDFE710B5034800F070F8AA
:1007E000024800F06DF810BDB4030020F8030020AB
:1007F00010B504460068054940181421FFF772FC43
:10080000800020640248E06310BD0000F8FFFDBFD7
:100810000000024030B5056C0124AC40C56B6C6033
:10082000046863604368102B036803D09960006814
:10083000C26030BD9A600068C16030BD7047000082
:1008400010B500F037FF0149486010BD00000020DE
:1008500010B500F02FFF064C20606168401AFFF7CA
:10086000B8FC0449FFF777FCFFF7BEFCA06010BDA1
:10087000000000200000D64270B50024014620315F
:100880004A78022A03D004218163012416E0026819
:1008900013680E25AB431360026813685B085B00A6
:1008A00013600122056C1346AB40C56B6B604A7048
:1008B00000220A70416B002900D08847204670BD95
:1008C000F0B4C16B0D6801680C680422066C134615
:1008D000B3402B420DD063070BD50B689B0602D4A7
:1008E0000B6893430B60016C8A40C16B4A60C16A1C
:1008F00019E00227B74002462F4001232032002F83
:1009000015D0A70713D50C68A40604D40C680A25D3
:10091000AC430C605370036C02219940C36B596067
:1009200000211170816A002916D0F0BC0847082701
:10093000B7402F4210D024070ED50C680E25AC43CB
:100940000C60046C1946A140C46B616083635370F2
:1009500000211170016BE6E7F0BC704770B5040030
:1009600024D00220214620310D46487022681168AB
:100970000F48A3680140606826691843E368334361
:10098000184363691843A3691843E369184308438C
:1009900010602046FFF72CFF0020A062E062206379
:1009A0006063A06301216970287070BD012070BD73
:1009B0000FC0FFFFF8B504468C46203001780025B3
:1009C000012909D00126067041780027012905D0A8
:1009D000077002252846F8BD0220F8BD02214170AB
:1009E000A763206801684908490001606146204604
:1009F000FFF710FFE06A00282068016802D00E228D
:100A0000114306E00A2211430160206801680422B4
:100A1000914301602068016831430160DAE731B534
:100A200000F0BCF8009C0546601C00D0641C00F07F
:100A3000B5F8401BA042FAD338BD0000F8B500233A
:100A40008DE001249C40A44622407DD04C68022CBD
:100A500001D0122C0CD1DC08A40027183C6A5D07D9
:100A6000ED0E0F26AE40B4430E69AE4026433E6203
:100A700005685E000324B4400F79A543BF07BF0F8C
:100A8000B7402F4307604D68012D05D0022D03D0DC
:100A9000112D01D0122D0ED18568CF68A543B74026
:100AA0002F43876047686546AF430D79ED06ED0F2C
:100AB0009D403D434560C568A5438C68B4402C43C8
:100AC000C4604C68E40049D5284CA569012635432B
:100AD000A561A4699D0834400094254CAD002F19F0
:100AE000BC689D072E0F0F25B540AC430925ED06C8
:100AF000A84201D100250FE01E4DA84201D10125D9
:100B00000AE01D4DA84201D1022505E01B4DA84277
:100B100001D1032500E00525B5402543BD60184CF3
:100B200025684E689543F60300D515432560656832
:100B30004E689543B60300D515436560A5684E68B9
:100B40009543F60202D500E008E01543A560E5688C
:100B50004E689543B60200D51543E5605B1C0A68F4
:100B60001446DC4000D06CE7F8BD000000100240E5
:100B7000000001400004004800080048000C004844
:100B8000000401400069084000D001207047002A9D
:100B900001D08161704781627047000001480068A0
:100BA000704700001800002002480168491C0160DD
:100BB000704700001800002010B506480168102298
:100BC00011430160002000F007F800F017F8002042
:100BD00010BD00000020024010B5044600F03AF9B4
:100BE0007D21C900FFF77EFA00F030FB002221468C
:100BF000501E00F021F8002010BD000008B5084884
:100C00008169012211438161816911400091C269AA
:100C100001040A43C261C0690840009008BD000099
:100C200000100240C106C90E012088400149086039
:100C30007047000000E100E010B500F00BFE10BDB1
:100C4000F8B505460068354CC00352D5E06900266A
:100C5000C00007D4E16920040143E161E16901407A
:100C6000012600912E480168C90510D4016882153B
:100C700011430160FFF792FF074604E0FFF78EFF84
:100C8000C01B642824D826480068C005F6D5206A11
:100C900003273F02384020D06968394081421CD088
:100CA000206A226AB843012109040A432262226AA7
:100CB0008A4322622062C0070FD0FFF76FFF0090C7
:100CC00008E0FFF76BFF0099411A1648814201D9ED
:100CD0000320F8BD206A8007F3D5206A6968B8430D
:100CE00008432062002E04D0E169012000078143FF
:100CF000E1612878C00705D0206BA96880088000D2
:100D0000084320632878800605D5206B102188438E
:100D1000E968084320630020F8BD0000001002408D
:100D20000070004088130000F8B5054644480E46A0
:100D30000068C007C00FB0420AD2414801684908A4
:100D40004900314301600068C007C00FB0425CD168
:100D500028783C4C800705D56068F0218843A96855
:100D6000084360602878C0073FD06868012813D026
:100D70002168022813D08907002946DA61688908AA
:100D8000890001436160FFF709FF6968074601298F
:100D90000DD0022917D024E021688903ECE78901EE
:100DA000EAE7FFF7FBFEC11B2748814217D86068BE
:100DB0000007800F0128F4D117E0FFF7EFFEC11BF9
:100DC000214881420BD860680007800F0228F4D1C7
:100DD0000BE0FFF7E3FEC11B1B48814201D9032052
:100DE000F8BD60680007800FF3D115480168C90796
:100DF000C90FB1420BD9016849084900314301606C
:100E00000068C007C00FB04201D00120F8BD2878AB
:100E1000400706D56068072109028843E96808434E
:100E2000606000F02DF86168084A0906090F515CFE
:100E3000C840074908600020FFF7CEFE0020F8BD3B
:100E40000020024000100240881300006C270008B8
:100E50001C00002001480068704700001C000020B2
:100E60000448054900684968044A4905490F515C2E
:100E7000C84070471C000020001002407C2700087A
:100E800010B512A30FCB88B06C460FC413A30FCBC1
:100E90000FC416494A680C20134603401448042B1B
:100EA0000FD0082B0DD193021B0F6C46E45CC96A6E
:100EB00004AB0907090F595CD20304D5FFF712F9F7
:100EC000604308B010BD0B486043FAE70203040515
:100ED000060708090A0B0C0D0E0F1010010203047F
:100EE00005060708090A0B0C0D0E0F100010024032
:100EF00000127A0000093D00FEB504460078D04D8E
:100F0000C00747D068680007800F012807D06868CD
:100F10000007800F022809D16868C00306D5286839
:100F2000800337D5606800287ED033E001206268F6
:100F30000004012A11D08100002A01D0052A10D016
:100F40002A6882432A6028688843286060680028ED
:100F500014D0FFF723FE06460CE029680143296000
:100F6000F4E72A680A432A60F7E7FFF717FE801BB9
:100F700064286FD828688003F7D50BE0FFF70EFED2
:100F8000064604E0FFF70AFE801B6428F1D82868B3
:100F90008003F7D420780126800700283BDA6868B0
:100FA0000007800F07D068680007800F022809D16A
:100FB0006868C00306D42868800715D5E068012852
:100FC00032D111E0E0680028286815D0304328604D
:100FD000FFF7E4FD074604E0FFF7E0FDC01B022831
:100FE000C7D828688007F7D52868F8218843216981
:100FF000C900084328600EE0400840002860FFF761
:10100000CDFD074604E0FFF7C9FDC01B0228B0D89C
:1010100028688007F7D42078000724D5E0690028E5
:10102000686A10D0304300E008E16862FFF7B6FD5F
:10103000074604E0FFF7B2FDC01B022899D8686A92
:101040008007F7D50FE0400840006862FFF7A6FD73
:10105000074605E09DE0FFF7A1FDC01B022888D8E8
:10106000686A8007F7D4207804274007002860DAF0
:1010700000200190E869C00008D4E969B80601437E
:10108000E961E96901400120009101906D48016822
:10109000C90511D40168821511430160FFF77EFD77
:1010A000009005E0FFF77AFD0099401A642870D897
:1010B00064480068C005F5D5A06801280AD000285A
:1010C00001D0052810D0286A400840002862286A0C
:1010D000B84301E0286A30432862A068002812D093
:1010E000FFF75CFD00900AE0286A38432862F1E7C8
:1010F000FFF754FD0099411A5348814249D8286AA4
:101100008007F5D50DE0FFF749FD009006E0FFF7F9
:1011100045FD0099411A4C4881423AD8286A800717
:10112000F5D40198002804D0E96901200007814323
:10113000E9612078C00635D5606901280CD0401DD2
:10114000686B23D038436863686B4008400068636D
:10115000FFF724FD064622E0686B38436863686B3E
:1011600030436863FFF71AFD064604E0FFF716FDFB
:10117000801B02285BD8686B8007F7D5686BF82165
:101180008843A169C900084368630BE0B8436863FA
:10119000F4E74CE0FFF702FD801B022847D8686B9C
:1011A0008007F7D4206A002846D069680907890FAC
:1011B000022943D0012636060228286805D0B0430C
:1011C0002860FFF7EBFC044633E0B0432860FFF7EC
:1011D000E5FC074604E0FFF7E1FCC01B022826D827
:1011E00028688001F7D4E86AE16A00090001084331
:1011F000E862616AA06A084369683D22120491436B
:1012000008436860286830432860FFF7C7FC04463D
:1012100004E0FFF7C3FC001B022808D828688001FF
:10122000F7D509E0FFF7BAFC001B022801D903201B
:10123000FEBD28688001F5D40020FEBD0120FEBD62
:10124000001002400070004088130000094910B5EA
:10125000401E884201D9012010BD074C6061032166
:10126000081F00F0F7FA0020A0610720206100208D
:1012700010BD0000FFFFFF0000E000E0704700002D
:10128000F8B503680446D96918680D072D0F07D112
:101290008A0605D5820603D5204600F042FCF8BD3B
:1012A0009A68002D64D0D507ED0FFF262136064041
:1012B0002E435DD0CE0706D0C60504D501261E629A
:1012C000E36E3343E3668F0702230426002F06DA1A
:1012D000D70704D027683B62E76E3743E7664F07BE
:1012E00006D5D20704D022681662E26E1A43E2667F
:1012F0000A0709D5202202402A4305D02368082284
:101300001A62E36E1343E366E26E002AC7D08906D1
:1013100004D5800602D5204600F003FCE06E0007ED
:1013200003D42068806840061CD5204600F0D4FB1A
:1013300020688168490611D5816840229143816007
:10134000606E00280AD012494163606EFFF794FA7C
:101350000028A4D0606E416B8847F8BD2046FFF797
:101360008DFFF8BD2046FFF789FF0020E066F8BD3D
:101370000A0605D5020603D5204600F0A7FCF8BDF5
:101380004906FCD54006FAD5204600F0B4FBF8BD6E
:10139000311A000870B5040005D025466035687A1A
:1013A000002802D006E0012070BD002028722046EF
:1013B00000F026F824206872206801684908490076
:1013C0000160204600F0EAFB0128EDD0606A0028A9
:1013D00002D0204600F0BEFA206841680122D20205
:1013E00091434160206881680822914381602068B0
:1013F0000168012211430160204600F010FB70BD1E
:10140000F0B587B0064614216846FEF799FE2C49D0
:101410003068884252D12B488269012189030A43EE
:10142000826182690A4005924269C9000A434261A9
:1014300040690024084005900320400200900220EB
:101440000190032003900120049009200294694632
:10145000C006FFF7F3FA1D4D1B48286010208027B7
:10146000291D91C12C616C61AC612846EC61FFF7CC
:1014700075FA002801D0FFF7E1F935666E6212486F
:10148000124D1430443511C52C60AC60EC606F60B7
:1014900020206C61286128460838083DFFF75EFA75
:1014A000002801D0FFF7CAF97566002211461B20FB
:1014B0006E62FFF7C1FB1B20FFF7B4FB07B0F0BD66
:1014C00000380140001002401C000240B40300201C
:1014D000F8B5054604466035A87A202841D1002990
:1014E0000BD0002A09D00123A0681B03984206D123
:1014F0002069002803D1C80701D00120F8BD287A4F
:1015000001282ED001202872582061650253002640
:10151000E6662220A872616E13488862616E1348E5
:10152000C862616E12480863606E13464663676D59
:1015300021683A462431606EFFF73CFA2E7220682B
:101540000168FF2201321143016020688168012295
:10155000114381602068816840221143816000202E
:10156000F8BD0220F8BD00008F1A0008CF1A00084D
:10157000451A0008F0B5184800688169082211432F
:101580008161164FFF223D783B460020144991327D
:101590005C68232D0CD0944205DB00237860C8548E
:1015A0005B1C9342FBDB78680D54401C7860F0BDF7
:1015B00000230C4D02E0CE5CEE545B1C2646A34299
:1015C000F9DBBE7001237B7000237860C8545B1C7C
:1015D0009342FBDBF0BD0000440300200C00002020
:1015E00024000020B40100207047FFB506460446E1
:1015F0006036707A83B00D46202858D1002D0CD06B
:101600000598002809D00120A1680003814207D174
:101610002069002804D1E80702D0012007B0F0BDFE
:10162000307A012843D0012030720020E06621206A
:101630007072FFF7B3FA0190274640370598388259
:101640000598788218E0788A401E78820698009083
:10165000002280212046019B00F06BFB002818D15E
:101660000120A1680003814202D12069002812D024
:101670002168287808856D1C788A0028E3D10698AF
:101680000090002240212046019B00F052FB0028E0
:1016900008D00320C2E728882168C005C00D08854E
:1016A000AD1CE9E72020707200203072B6E70220FE
:1016B000B4E77047F8B52D4D002210212846FFF7FA
:1016C00066FA00242A4F264608212846FFF75AFAD0
:1016D000002808D1012000F0F1FF08212846FFF77B
:1016E00051FA002802D0761CBE42EDDB012000F04A
:1016F000E5FF0026012210212846FFF748FA0120C5
:1017000000F0DCFF6400002210212846FFF73FFABA
:1017100008212846FFF736FA012800D1641C761C00
:10172000F6B2182EE6D3012210212846FFF72FFA31
:10173000022000F0C3FF0120C00544400022102118
:101740002846FFF724FA012000F0B8FF01221021FB
:101750002846FFF71CFA012000F0B0FF00221021FC
:101760002846FFF714FA2046F8BD000000040048A0
:1017700040420F00FEE7000008B508484169012219
:1017800011434161406910400022009011460A2037
:10179000FFF752FA0A20FFF745FA08BD0010024091
:1017A00030B587B014216846FEF7CAFC1848426974
:1017B000012189050A43426142690A400592426952
:1017C00049110A43426142690A400592426949004F
:1017D0000A43426140690F4D0840059000221021E4
:1017E0002846FFF7D4F908200024009001946946A8
:1017F00002942846FFF722F9102000900120019062
:101800000294694603942846FFF718F907B030BDE3
:10181000001002400004004810B50C480A4901605D
:101820004B21C901416000218160C160016181617A
:10183000C1610C22016242614162FFF7ABFD0028E9
:1018400001D0FEF7FBFF10BD00380140440300202B
:10185000704700008307FF22DB0E9A408907090EBC
:10186000994000280BDA0007000F08388308084861
:101870009B001818C36993430B43C36170478308E7
:1018800004489B001B181868904308431860704771
:1018900000ED00E000E400E07047704710B5FFF78E
:1018A00083F910BD30B595B030216846FEF748FC8D
:1018B00000240F9402200D940E94009012940125A0
:1018C000139410200C940395049010941194089490
:1018D0006846FFF711FB07200C900D940E94002131
:1018E0000F940CA8FFF720FA10A810951294FFF798
:1018F000A7F915B030BD000013480168012211435B
:1019000001604168114A114041600168104A11406C
:1019100001600168012292049143016041683F2205
:10192000120491434160C16A09090901C162016B56
:10193000FF22143291430163416B4908490041631E
:101940000021816070470000001002400CB8FF08C1
:10195000FFFFF6FE10B5818CC90707D001684A6801
:1019600001235B049A43836A1A434A60818C890786
:1019700007D501684A6801231B049A43C36A1A43C6
:101980004A60818C490707D501684A6801239B0496
:101990009A43036B1A434A60818C090707D5016893
:1019A0004A680123DB039A43436B1A434A60818CE4
:1019B000C90607D50268916801231B039943836B0D
:1019C00019439160818C890607D501688A680123D3
:1019D0005B039A43C36B1A438A60818C490612D514
:1019E00003685A6801210905046C8A4322435A603E
:1019F000026C8A4207D10268516803235B05994350
:101A0000436C19435160818C090607D501684A6807
:101A10000123DB04806C9A4302434A6010BD00211D
:101A2000C16620226030427282720172084670479D
:101A300010B5406A0022014640314A834A82FFF7CE
:101A40001DFC10BD70B5446A25466035687A0026D5
:101A5000212808D120688068000604D5522006534A
:101A6000204600F055F8A87A222808D1206880681E
:101A7000400604D55A200653204600F02DF8E06EAB
:101A800010210843E0662046FFF7F8FB70BD10B553
:101A900001460968406A0968890615D400225A215E
:101AA0000A5201680A68FF2301339A430A600168F9
:101AB0008A68520852008A6001688A6840239A4303
:101AC0008A6020226A210A54FFF754FD10BD10B528
:101AD000406AFFF789FD10BD01680A68FF232133C2
:101AE0009A430A6001688A68520852008A6020217D
:101AF00060308172704710B501680A6840239A43CC
:101B00000A60202269210A54FFF7D3FD002010BD8E
:101B100001680A68C0239A430A602021603041723C
:101B2000704770B50246403203466033948B9D7A0D
:101B30000168222D05D0886908221043886102209F
:101B400070BD898C012685683603B54202D10569CE
:101B5000002D0BD02140446D651C45652170518BD3
:101B6000491E0904090C518307D015E0456D214039
:101B70002980416D891C4165F1E701680A68FF24ED
:101B80002134A2430A6001688A68520852008A60C0
:101B900020219972FFF7EEFC002070BDF8B50446D5
:101BA0002369A268E5691A43636910202B43002169
:101BB00025681A432B680E463E4F3B4013432B606B
:101BC00023685A6803252D03AA43E5682A435A600F
:101BD000236AA26925681A43AB680B273F02BB43FF
:101BE0001343AB60344A2568954210D1334A126BD7
:101BF0009207920F0ED0012A05D0022A05D0032A9F
:101C000009D1022007E0042005E0082003E02C4A67
:101C1000954200D100200122E369D203934224D1EE
:101C200000280CD002280DD0042813D0082817D083
:101C300001260A0912010807400F10432FE0FFF7A1
:101C40000FF909E061681F4A48088018FEF74AFA50
:101C500081B2EEE7FFF714F9616840004A08F4E743
:101C60006168012248081204EFE7002808D0022822
:101C700009D004280BD0082814D001263046F8BD1E
:101C8000FFF7EEF805E061680F4A48080CE0FFF73F
:101C9000F7F861684A088018FEF724FA80B22168D4
:101CA000C860EBE7616848088018FEF71BFA80B24D
:101CB000E860E3E7F369FFFF0038014000100240ED
:101CC000004400400024F40000127A006921095CFD
:101CD000212901D00220704702464032518A002952
:101CE00012D0012381681B03994202D101690029A6
:101CF00015D0C16C4B1CC364006809780185508AFB
:101D0000401E50820020704701680A6880239A4371
:101D10000A6000680168402211430160F2E7C16C6B
:101D200003680988C905C90D1985C16C891CC1647E
:101D3000E5E7FFB581B017460E4604460A9D1DE053
:101D4000681C1BD0002D05D0FEF728FF0499401A0F
:101D5000A84213D920680168FF22A1329143016093
:101D600020688168490849008160202060346072E1
:101D7000A07200202072032005B0F0BD2068C16968
:101D80003046884304D00020B842D9D00020F3E781
:101D90000120F9E710B50248FFF772FA10BD000004
:101DA000440300200FB410B503A9044B044A029861
:101DB00000F0E8F810BC08BC04B01847D9260008A9
:101DC000200000202021020C01D010211046020A20
:101DD00001D010460839020901D01046091F8208B7
:101DE00001D01046891E420801D0881E7047081A8B
:101DF000704702E008C8121F08C1002AFAD17047D4
:101E00007047002001E001C1121F002AFBD170477A
:101E1000F0B51FB486B00998089A030D002102435B
:101E200014D05148514A18185043051411980128EC
:101E300010981AD0281A401C00264D4F4D49009684
:101E400001910490002812DA444211E01198012413
:101E500049A3012801D11098C1430698119A8460C2
:101E60000360C26041600BB0F0BD4042E4E704464D
:101E7000210500203F4A001C51410391029012E0CD
:101E8000E00707D032463B4601990098FEF7FCFA7E
:101E90000191009032463B4610461946FEF7F4FA8F
:101EA00006460F466410002CEAD10498039B0028D4
:101EB000029A0999089806DAFEF7E6FA019B009A59
:101EC000FEF7E2FA05E0FEF747FB019B009AFEF7FA
:101ED00043FB04460E460022284BFEF7D5FB03D8F1
:101EE0000020C043014607E00022254B2046314632
:101EF000FEF718FAFEF7A8FB102409E0002C0ADB15
:101F00000A220023FEF79DF9079B30321A55641E02
:101F100002460A43F2D11122641C079B121B1C19B2
:101F2000119B012B03D0012308430ED10AE0084383
:101F300004D0112010900020119077E71098151A06
:101F40006D1E0BE01098824202DD00236D1C03E041
:101F5000824201DA00236D1E002BEED00698119903
:101F60008260C16030C07EE701FCFFFF104D0000C1
:101F7000000014400000F03F300000000000F0437B
:101F80000000E03FFFB597B00646002518E225287F
:101F900077D100242746FD49049400E00443761CD1
:101FA00032780120203A90400842F7D130782A2830
:101FB0000ED00222307801463039092916D804990A
:101FC0000A235943303940181443761C0490F1E732
:101FD000189802C804911890002904DA01204003DF
:101FE00004434842049002200443761C30782E2893
:101FF00014D1042004437078761C2A2809D118983B
:10200000761C80C8189009E00A214F43303FC71959
:10201000761C3078014630390929F5D930786C289A
:1020200010D006DC4C281AD068280ED06A2817D1A8
:1020300004E0742813D07A2812D110E00120400562
:1020400004430CE00121090501E0032109050C43CB
:102050007178814203D1012000052418761C761C7A
:102060003078119066280BD013DC58287DD009DC1D
:1020700000287BD04528F6D04628F4D047281AD12E
:10208000A5E118E0632835D0642870D0652812D106
:102090009DE170286CD008DC6728F1D069287BD0DE
:1020A0006E280DD06F2806D1BAE073282ED075287F
:1020B00071D0782859D01A9A199990476D1C7EE1F1
:1020C0006002400F022809D003280DD00428189878
:1020D00001680DD00D60001D189070E11898EA1786
:1020E00001680D604A60F6E7189801680D80F2E714
:1020F0000D70F0E718986A4601781172001D18906B
:102100000020507202A80090012005E0189802C833
:10211000189000200091C04361070DD5002101E017
:102120000199491C0191B94212DA8142F8DB009A07
:10213000515C0029F4D10BE0002101E00199491C18
:1021400001918142FADB019A0099895C0029F5D15D
:10215000019904981A9B471A21463846199A00F0AB
:1021600097FA0199401945180BE04FE02CE113E074
:102170004EE0009800990078491C00911A9A19992C
:1021800090470198401E0190401CF2D121463846EC
:102190001A9B199A10E137E00A2000210090019162
:1021A0006002410F022907D0189A01CA1892C2177B
:1021B0009446032908D00AE01898C01DC108C90038
:1021C00005C91891944607E000B2C2179446042945
:1021D00002D140B2C1178C4600226146944506DA0E
:1021E0000A460021404291418C462D2102E0210502
:1021F00004D52B216A461173012103E0E10701D0C8
:102200002021F7E7029155E00A200AE0102008E0BB
:10221000102000900021042004430191082703E0CE
:1022200008200021019100906002410F022907D08F
:10223000189A01CA189200229446032908D008E08F
:102240001898C01DC108C90005C91891944603E03B
:1022500080B2042900D1C0B200210291210729D502
:102260001199702906D0009A1021019B4A401A4307
:1022700005D00EE040216A461173012108E0614655
:10228000014306D030216A4611731199517302211E
:102290000291009A0821019B4A401A430AD16146E3
:1022A000014301D1610705D530216A46117301212F
:1022B0007F1E02911199582904D035A10E910DA9C4
:1022C0000D910DE037A1F9E76146019B009AFDF7FA
:1022D000B8FF0E9B8C469B5C0D9A521E0D9213709C
:1022E00061460143F0D10D9805A9081A20300190EC
:1022F000600703D501200004844300E00127019812
:10230000874201DD381A00E0002001990090411851
:10231000029809180498401A0490E00306D4214654
:102320001A9B199A049800F0B3F94519002706E0A2
:1023300003A81A9AC05D199990476D1C7F1C0298DA
:102340008742F5DBE0030CD521461A9B199A0498C5
:1023500000F09EF9451904E01A9A30201999904727
:102360006D1C0099481E00900029F5DC08E00D98CE
:102370000D990078491C0D911A9A199990476D1C76
:102380000199481E01900029F1DC63E10928010050
:1023900030313233343536373839616263646566DB
:1023A000000000003031323334353637383941429D
:1023B000434445460000000000F05AF94519761CD8
:1023C0003078002800D0E2E528461BB0F0BD600759
:1023D00000D406271898C01DC108C90048680A68BB
:1023E0000831C30FDB071891190001D09CA108E048
:1023F000210501D59BA104E0E10701D09AA100E0ED
:102400009AA1430011985B08109165280CD006DC56
:10241000452809D046281DD0472841D141E06628EB
:1024200018D067283CD13CE00021112F01DB11209E
:1024300000E0781C0191009008A911A8FFF7E8FCC2
:10244000139905910021119A15927F1C12980197FA
:10245000009150E00120C00703900120019008A9DD
:10246000009711A8FFF7D4FC139A14990592002243
:10247000119B009212981593059A0192002901D0A0
:10248000104602E0791C40180190381A01D50198D5
:1024900004E04042401E0090781C0190C01B029056
:1024A00043E0012F00DA01270021112F01DD112067
:1024B00000E038460191009008A911A8FFF7A8FC98
:1024C00013990591119A0021129815920091019784
:1024D00021070CD40599B94201DB019900E0019173
:1024E000012904DD159A491E515C302906D0B842F5
:1024F00001DA011D05DA0121029115E00199491E59
:10250000EDE7002805DC0099411800910199091AAE
:1025100003E0019A411C914200DD01910099401AAB
:10252000401C02900120C0070390200706D40299A6
:102530000198814202DB0020C043029000206946DE
:10254000C87707AF012103980337C907884224D011
:10255000022011902B201290039800280CDA4042A0
:1025600003902D20129007E00A210398FDF7BAFD91
:1025700030317F1E039039701199481E1190002947
:10258000F2DC03980028EFD1791E12980870307899
:10259000202108404530BF1E387006A8C01BC01D52
:1025A000039010980078002800D00120019941186C
:1025B0000298C0170918039809180498401A401E79
:1025C0000490E00306D421461A9B199A049800F05F
:1025D0005FF8451910980078002803D01A9A1999C5
:1025E00090476D1CE00324D521461A9B199A049844
:1025F00000F04EF845191CE00098002807DB009910
:102600000598884203DD1598405C199901E01999F5
:1026100030201A9A904700986D1C401C0090029838
:10262000401E0290002804D11A9A2E201999904732
:102630006D1C0199481E01900029DDDC05E0387809
:102640001A9A7F1C199990476D1C0399481E039094
:102650000029F4DC21461A9B199A0498ACE6000084
:102660002D0000002B0000002000000000000000F2
:10267000F8B5044600251E461746880404D405E034
:1026800039462020B0476D1C641EF9D52846F8BD98
:10269000FFB50446002581B01E46C80301D530278A
:1026A00000E02027880404D505E038460399B047A8
:1026B0006D1C641EF9D5284605B0F0BD05E0092162
:1026C0000A46491E89B2002AFAD10146401E80B24C
:1026D0000029F4D17047000013B5044B012269466C
:1026E0000348FEF782FF00981CBD0000FFFF0000BA
:1026F00044030020FEF760FAFFF7D4F8FFF750F824
:10270000FFF73AF8FFF788F87D20C000FEF787F959
:1027100010480068816908221143816101220E4935
:102720000C48FEF7D5FEFEF78BF80B4C0B4DFEF771
:102730008FF8FDF74EFD2946FDF70DFDA060FDF772
:102740006CFD02460B4606A0FFF72CFB6420FEF74B
:1027500066F9ECE7440300200C00002000007A44F6
:1027600025302E3366206B670A0000000000000051
:102770000000000001020304060708090000000031
:1027800001020304A4270008000000202400000028
:10279000F21D0008C8270008240000201C080000C3
:1027A000021E000800000000000000000000000001
:1027B0000000000000000000000000000000000019
:0827C00000127A000000000085
:04000005080000B53A
:00000001FF
